{
  "_format": "hh-sol-artifact-1",
  "contractName": "EffortGlyphTest",
  "sourceName": "contracts/EffortGlyph.sol",
  "abi": [
    {
      "inputs": [],
      "stateMutability": "nonpayable",
      "type": "constructor"
    },
    {
      "inputs": [
        {
          "internalType": "address",
          "name": "sender",
          "type": "address"
        },
        {
          "internalType": "uint256",
          "name": "tokenId",
          "type": "uint256"
        },
        {
          "internalType": "address",
          "name": "owner",
          "type": "address"
        }
      ],
      "name": "ERC721IncorrectOwner",
      "type": "error"
    },
    {
      "inputs": [
        {
          "internalType": "address",
          "name": "operator",
          "type": "address"
        },
        {
          "internalType": "uint256",
          "name": "tokenId",
          "type": "uint256"
        }
      ],
      "name": "ERC721InsufficientApproval",
      "type": "error"
    },
    {
      "inputs": [
        {
          "internalType": "address",
          "name": "approver",
          "type": "address"
        }
      ],
      "name": "ERC721InvalidApprover",
      "type": "error"
    },
    {
      "inputs": [
        {
          "internalType": "address",
          "name": "operator",
          "type": "address"
        }
      ],
      "name": "ERC721InvalidOperator",
      "type": "error"
    },
    {
      "inputs": [
        {
          "internalType": "address",
          "name": "owner",
          "type": "address"
        }
      ],
      "name": "ERC721InvalidOwner",
      "type": "error"
    },
    {
      "inputs": [
        {
          "internalType": "address",
          "name": "receiver",
          "type": "address"
        }
      ],
      "name": "ERC721InvalidReceiver",
      "type": "error"
    },
    {
      "inputs": [
        {
          "internalType": "address",
          "name": "sender",
          "type": "address"
        }
      ],
      "name": "ERC721InvalidSender",
      "type": "error"
    },
    {
      "inputs": [
        {
          "internalType": "uint256",
          "name": "tokenId",
          "type": "uint256"
        }
      ],
      "name": "ERC721NonexistentToken",
      "type": "error"
    },
    {
      "inputs": [
        {
          "internalType": "address",
          "name": "owner",
          "type": "address"
        }
      ],
      "name": "OwnableInvalidOwner",
      "type": "error"
    },
    {
      "inputs": [
        {
          "internalType": "address",
          "name": "account",
          "type": "address"
        }
      ],
      "name": "OwnableUnauthorizedAccount",
      "type": "error"
    },
    {
      "anonymous": false,
      "inputs": [
        {
          "indexed": true,
          "internalType": "address",
          "name": "recipient",
          "type": "address"
        },
        {
          "indexed": false,
          "internalType": "uint256",
          "name": "tokenId",
          "type": "uint256"
        },
        {
          "indexed": false,
          "internalType": "string",
          "name": "achievementType",
          "type": "string"
        },
        {
          "indexed": false,
          "internalType": "string",
          "name": "uri",
          "type": "string"
        }
      ],
      "name": "AchievementMinted",
      "type": "event"
    },
    {
      "anonymous": false,
      "inputs": [
        {
          "indexed": true,
          "internalType": "address",
          "name": "owner",
          "type": "address"
        },
        {
          "indexed": true,
          "internalType": "address",
          "name": "approved",
          "type": "address"
        },
        {
          "indexed": true,
          "internalType": "uint256",
          "name": "tokenId",
          "type": "uint256"
        }
      ],
      "name": "Approval",
      "type": "event"
    },
    {
      "anonymous": false,
      "inputs": [
        {
          "indexed": true,
          "internalType": "address",
          "name": "owner",
          "type": "address"
        },
        {
          "indexed": true,
          "internalType": "address",
          "name": "operator",
          "type": "address"
        },
        {
          "indexed": false,
          "internalType": "bool",
          "name": "approved",
          "type": "bool"
        }
      ],
      "name": "ApprovalForAll",
      "type": "event"
    },
    {
      "anonymous": false,
      "inputs": [
        {
          "indexed": false,
          "internalType": "uint256",
          "name": "_fromTokenId",
          "type": "uint256"
        },
        {
          "indexed": false,
          "internalType": "uint256",
          "name": "_toTokenId",
          "type": "uint256"
        }
      ],
      "name": "BatchMetadataUpdate",
      "type": "event"
    },
    {
      "anonymous": false,
      "inputs": [
        {
          "indexed": false,
          "internalType": "uint256",
          "name": "_tokenId",
          "type": "uint256"
        }
      ],
      "name": "MetadataUpdate",
      "type": "event"
    },
    {
      "anonymous": false,
      "inputs": [
        {
          "indexed": true,
          "internalType": "address",
          "name": "previousOwner",
          "type": "address"
        },
        {
          "indexed": true,
          "internalType": "address",
          "name": "newOwner",
          "type": "address"
        }
      ],
      "name": "OwnershipTransferred",
      "type": "event"
    },
    {
      "anonymous": false,
      "inputs": [
        {
          "indexed": false,
          "internalType": "string",
          "name": "achievementType",
          "type": "string"
        },
        {
          "indexed": false,
          "internalType": "uint256",
          "name": "requiredHours",
          "type": "uint256"
        }
      ],
      "name": "RequiredHoursUpdated",
      "type": "event"
    },
    {
      "anonymous": false,
      "inputs": [
        {
          "indexed": true,
          "internalType": "address",
          "name": "from",
          "type": "address"
        },
        {
          "indexed": true,
          "internalType": "address",
          "name": "to",
          "type": "address"
        },
        {
          "indexed": true,
          "internalType": "uint256",
          "name": "tokenId",
          "type": "uint256"
        }
      ],
      "name": "Transfer",
      "type": "event"
    },
    {
      "inputs": [
        {
          "internalType": "uint256",
          "name": "",
          "type": "uint256"
        }
      ],
      "name": "achievementTypes",
      "outputs": [
        {
          "internalType": "string",
          "name": "",
          "type": "string"
        }
      ],
      "stateMutability": "view",
      "type": "function"
    },
    {
      "inputs": [
        {
          "internalType": "address",
          "name": "to",
          "type": "address"
        },
        {
          "internalType": "uint256",
          "name": "tokenId",
          "type": "uint256"
        }
      ],
      "name": "approve",
      "outputs": [],
      "stateMutability": "nonpayable",
      "type": "function"
    },
    {
      "inputs": [
        {
          "internalType": "address",
          "name": "owner",
          "type": "address"
        }
      ],
      "name": "balanceOf",
      "outputs": [
        {
          "internalType": "uint256",
          "name": "",
          "type": "uint256"
        }
      ],
      "stateMutability": "view",
      "type": "function"
    },
    {
      "inputs": [
        {
          "internalType": "uint256",
          "name": "tokenId",
          "type": "uint256"
        }
      ],
      "name": "getAchievementType",
      "outputs": [
        {
          "internalType": "string",
          "name": "",
          "type": "string"
        }
      ],
      "stateMutability": "view",
      "type": "function"
    },
    {
      "inputs": [
        {
          "internalType": "uint256",
          "name": "tokenId",
          "type": "uint256"
        }
      ],
      "name": "getApproved",
      "outputs": [
        {
          "internalType": "address",
          "name": "",
          "type": "address"
        }
      ],
      "stateMutability": "view",
      "type": "function"
    },
    {
      "inputs": [
        {
          "internalType": "string",
          "name": "achievementType",
          "type": "string"
        }
      ],
      "name": "getRequiredHours",
      "outputs": [
        {
          "internalType": "uint256",
          "name": "",
          "type": "uint256"
        }
      ],
      "stateMutability": "view",
      "type": "function"
    },
    {
      "inputs": [
        {
          "internalType": "address",
          "name": "owner",
          "type": "address"
        },
        {
          "internalType": "address",
          "name": "operator",
          "type": "address"
        }
      ],
      "name": "isApprovedForAll",
      "outputs": [
        {
          "internalType": "bool",
          "name": "",
          "type": "bool"
        }
      ],
      "stateMutability": "view",
      "type": "function"
    },
    {
      "inputs": [
        {
          "internalType": "address",
          "name": "recipient",
          "type": "address"
        },
        {
          "internalType": "string",
          "name": "achievementType",
          "type": "string"
        },
        {
          "internalType": "string",
          "name": "uri",
          "type": "string"
        }
      ],
      "name": "mintAchievement",
      "outputs": [
        {
          "internalType": "uint256",
          "name": "",
          "type": "uint256"
        }
      ],
      "stateMutability": "nonpayable",
      "type": "function"
    },
    {
      "inputs": [],
      "name": "name",
      "outputs": [
        {
          "internalType": "string",
          "name": "",
          "type": "string"
        }
      ],
      "stateMutability": "view",
      "type": "function"
    },
    {
      "inputs": [],
      "name": "owner",
      "outputs": [
        {
          "internalType": "address",
          "name": "",
          "type": "address"
        }
      ],
      "stateMutability": "view",
      "type": "function"
    },
    {
      "inputs": [
        {
          "internalType": "uint256",
          "name": "tokenId",
          "type": "uint256"
        }
      ],
      "name": "ownerOf",
      "outputs": [
        {
          "internalType": "address",
          "name": "",
          "type": "address"
        }
      ],
      "stateMutability": "view",
      "type": "function"
    },
    {
      "inputs": [],
      "name": "renounceOwnership",
      "outputs": [],
      "stateMutability": "nonpayable",
      "type": "function"
    },
    {
      "inputs": [
        {
          "internalType": "string",
          "name": "",
          "type": "string"
        }
      ],
      "name": "requiredHours",
      "outputs": [
        {
          "internalType": "uint256",
          "name": "",
          "type": "uint256"
        }
      ],
      "stateMutability": "view",
      "type": "function"
    },
    {
      "inputs": [
        {
          "internalType": "address",
          "name": "from",
          "type": "address"
        },
        {
          "internalType": "address",
          "name": "to",
          "type": "address"
        },
        {
          "internalType": "uint256",
          "name": "tokenId",
          "type": "uint256"
        }
      ],
      "name": "safeTransferFrom",
      "outputs": [],
      "stateMutability": "nonpayable",
      "type": "function"
    },
    {
      "inputs": [
        {
          "internalType": "address",
          "name": "from",
          "type": "address"
        },
        {
          "internalType": "address",
          "name": "to",
          "type": "address"
        },
        {
          "internalType": "uint256",
          "name": "tokenId",
          "type": "uint256"
        },
        {
          "internalType": "bytes",
          "name": "data",
          "type": "bytes"
        }
      ],
      "name": "safeTransferFrom",
      "outputs": [],
      "stateMutability": "nonpayable",
      "type": "function"
    },
    {
      "inputs": [
        {
          "internalType": "address",
          "name": "operator",
          "type": "address"
        },
        {
          "internalType": "bool",
          "name": "approved",
          "type": "bool"
        }
      ],
      "name": "setApprovalForAll",
      "outputs": [],
      "stateMutability": "nonpayable",
      "type": "function"
    },
    {
      "inputs": [
        {
          "internalType": "string",
          "name": "achievementType",
          "type": "string"
        },
        {
          "internalType": "uint256",
          "name": "_requiredHours",
          "type": "uint256"
        }
      ],
      "name": "setRequiredHours",
      "outputs": [],
      "stateMutability": "nonpayable",
      "type": "function"
    },
    {
      "inputs": [
        {
          "internalType": "bytes4",
          "name": "interfaceId",
          "type": "bytes4"
        }
      ],
      "name": "supportsInterface",
      "outputs": [
        {
          "internalType": "bool",
          "name": "",
          "type": "bool"
        }
      ],
      "stateMutability": "view",
      "type": "function"
    },
    {
      "inputs": [],
      "name": "symbol",
      "outputs": [
        {
          "internalType": "string",
          "name": "",
          "type": "string"
        }
      ],
      "stateMutability": "view",
      "type": "function"
    },
    {
      "inputs": [
        {
          "internalType": "uint256",
          "name": "tokenId",
          "type": "uint256"
        }
      ],
      "name": "tokenURI",
      "outputs": [
        {
          "internalType": "string",
          "name": "",
          "type": "string"
        }
      ],
      "stateMutability": "view",
      "type": "function"
    },
    {
      "inputs": [
        {
          "internalType": "address",
          "name": "from",
          "type": "address"
        },
        {
          "internalType": "address",
          "name": "to",
          "type": "address"
        },
        {
          "internalType": "uint256",
          "name": "tokenId",
          "type": "uint256"
        }
      ],
      "name": "transferFrom",
      "outputs": [],
      "stateMutability": "nonpayable",
      "type": "function"
    },
    {
      "inputs": [
        {
          "internalType": "address",
          "name": "newOwner",
          "type": "address"
        }
      ],
      "name": "transferOwnership",
      "outputs": [],
      "stateMutability": "nonpayable",
      "type": "function"
    }
  ],
  "bytecode": "0x60806040523480156200001157600080fd5b50336040518060400160405280600f81526020016e1159999bdc9d11db1e5c1a15195cdd608a1b8152506040518060400160405280600a8152602001691151d3165412151154d560b21b81525081600090816200006f9190620001b9565b5060016200007e8282620001b9565b5050506001600160a01b038116620000b057604051631e4fbdf760e01b81526000600482015260240160405180910390fd5b620000bb81620000c2565b5062000285565b600780546001600160a01b038381166001600160a01b0319831681179093556040519116919082907f8be0079c531659141344cd1fd0a4f28419497f9722a3daafe3b4186f6b6457e090600090a35050565b634e487b7160e01b600052604160045260246000fd5b600181811c908216806200013f57607f821691505b6020821081036200016057634e487b7160e01b600052602260045260246000fd5b50919050565b601f821115620001b457600081815260208120601f850160051c810160208610156200018f5750805b601f850160051c820191505b81811015620001b0578281556001016200019b565b5050505b505050565b81516001600160401b03811115620001d557620001d562000114565b620001ed81620001e684546200012a565b8462000166565b602080601f8311600181146200022557600084156200020c5750858301515b600019600386901b1c1916600185901b178555620001b0565b600085815260208120601f198616915b82811015620002565788860151825594840194600190910190840162000235565b5085821015620002755787850151600019600388901b60f8161c191681555b5050505050600190811b01905550565b61191880620002956000396000f3fe608060405234801561001057600080fd5b50600436106101425760003560e01c806387defd94116100b8578063c0f8f65d1161007c578063c0f8f65d146102b6578063c87b56dd146102c9578063dd106ffd146102dc578063e985e9c5146102ef578063ec61a48214610302578063f2fde38b1461031557600080fd5b806387defd941461024c5780638da5cb5b1461027757806395d89b4114610288578063a22cb46514610290578063b88d4fde146102a357600080fd5b806342842e0e1161010a57806342842e0e146101d75780636352211e146101ea578063664c3b49146101fd5780636e0e1eee1461021057806370a0823114610223578063715018a61461024457600080fd5b806301ffc9a71461014757806306fdde031461016f578063081812fc14610184578063095ea7b3146101af57806323b872dd146101c4575b600080fd5b61015a6101553660046112ce565b610328565b60405190151581526020015b60405180910390f35b610177610339565b604051610166919061133b565b61019761019236600461134e565b6103cb565b6040516001600160a01b039091168152602001610166565b6101c26101bd366004611383565b6103f4565b005b6101c26101d23660046113ad565b610403565b6101c26101e53660046113ad565b610493565b6101976101f836600461134e565b6104b3565b61017761020b36600461134e565b6104be565b61017761021e36600461134e565b610558565b6102366102313660046113e9565b610654565b604051908152602001610166565b6101c261069c565b61023661025a3660046114b0565b8051602081830181018051600a8252928201919093012091525481565b6007546001600160a01b0316610197565b6101776106b0565b6101c261029e3660046114e5565b6106bf565b6101c26102b1366004611521565b6106ca565b6102366102c436600461159d565b6106e2565b6101776102d736600461134e565b610816565b6101c26102ea366004611611565b610821565b61015a6102fd366004611656565b610889565b6102366103103660046114b0565b6108b7565b6101c26103233660046113e9565b6108df565b60006103338261091d565b92915050565b60606000805461034890611689565b80601f016020809104026020016040519081016040528092919081815260200182805461037490611689565b80156103c15780601f10610396576101008083540402835291602001916103c1565b820191906000526020600020905b8154815290600101906020018083116103a457829003601f168201915b5050505050905090565b60006103d682610942565b506000828152600460205260409020546001600160a01b0316610333565b6103ff82823361097b565b5050565b6001600160a01b03821661043257604051633250574960e11b8152600060048201526024015b60405180910390fd5b600061043f838333610988565b9050836001600160a01b0316816001600160a01b03161461048d576040516364283d7b60e01b81526001600160a01b0380861660048301526024820184905282166044820152606401610429565b50505050565b6104ae838383604051806020016040528060008152506106ca565b505050565b600061033382610942565b600960205260009081526040902080546104d790611689565b80601f016020809104026020016040519081016040528092919081815260200182805461050390611689565b80156105505780601f1061052557610100808354040283529160200191610550565b820191906000526020600020905b81548152906001019060200180831161053357829003601f168201915b505050505081565b6000818152600260205260409020546060906001600160a01b03166105b65760405162461bcd60e51b8152602060048201526014602482015273151bdad95b88191bd95cc81b9bdd08195e1a5cdd60621b6044820152606401610429565b600082815260096020526040902080546105cf90611689565b80601f01602080910402602001604051908101604052809291908181526020018280546105fb90611689565b80156106485780601f1061061d57610100808354040283529160200191610648565b820191906000526020600020905b81548152906001019060200180831161062b57829003601f168201915b50505050509050919050565b60006001600160a01b038216610680576040516322718ad960e21b815260006004820152602401610429565b506001600160a01b031660009081526003602052604090205490565b6106a4610a81565b6106ae6000610aae565b565b60606001805461034890611689565b6103ff338383610b00565b6106d5848484610403565b61048d3385858585610b9f565b60006106ec610a81565b600083511161073d5760405162461bcd60e51b815260206004820181905260248201527f416368696576656d656e7420747970652063616e6e6f7420626520656d7074796044820152606401610429565b60008251116107845760405162461bcd60e51b81526020600482015260136024820152725552492063616e6e6f7420626520656d70747960681b6044820152606401610429565b60088054906000610794836116c3565b90915550506008546107a68582610cca565b6107b08184610ce4565b60008181526009602052604090206107c88582611730565b50846001600160a01b03167f1eb7195194eea07b5eeb1e861d4f7450ed79c85635f55fd4be9edc75bbfe3c9f828686604051610806939291906117f0565b60405180910390a2949350505050565b606061033382610d2d565b610829610a81565b80600a8360405161083a9190611825565b9081526020016040518091039020819055507fe541341f70e83fc7544ece63f44a6e91eb4ec0c983cb5c74c5e1c545b9dd2972828260405161087d929190611841565b60405180910390a15050565b6001600160a01b03918216600090815260056020908152604080832093909416825291909152205460ff1690565b6000600a826040516108c99190611825565b9081526020016040518091039020549050919050565b6108e7610a81565b6001600160a01b03811661091157604051631e4fbdf760e01b815260006004820152602401610429565b61091a81610aae565b50565b60006001600160e01b03198216632483248360e11b1480610333575061033382610e3e565b6000818152600260205260408120546001600160a01b03168061033357604051637e27328960e01b815260048101849052602401610429565b6104ae8383836001610e8e565b6000828152600260205260408120546001600160a01b03908116908316156109b5576109b5818486610f94565b6001600160a01b038116156109f3576109d2600085600080610e8e565b6001600160a01b038116600090815260036020526040902080546000190190555b6001600160a01b03851615610a22576001600160a01b0385166000908152600360205260409020805460010190555b60008481526002602052604080822080546001600160a01b0319166001600160a01b0389811691821790925591518793918516917fddf252ad1be2c89b69c2b068fc378daa952ba7f163c4a11628f55a4df523b3ef91a4949350505050565b6007546001600160a01b031633146106ae5760405163118cdaa760e01b8152336004820152602401610429565b600780546001600160a01b038381166001600160a01b0319831681179093556040519116919082907f8be0079c531659141344cd1fd0a4f28419497f9722a3daafe3b4186f6b6457e090600090a35050565b6001600160a01b038216610b3257604051630b61174360e31b81526001600160a01b0383166004820152602401610429565b6001600160a01b03838116600081815260056020908152604080832094871680845294825291829020805460ff191686151590811790915591519182527f17307eab39ab6107e8899845ad3d59bd9653f200f220920489ca2b5937696c31910160405180910390a3505050565b6001600160a01b0383163b15610cc357604051630a85bd0160e11b81526001600160a01b0384169063150b7a0290610be1908890889087908790600401611863565b6020604051808303816000875af1925050508015610c1c575060408051601f3d908101601f19168201909252610c1991810190611896565b60015b610c85573d808015610c4a576040519150601f19603f3d011682016040523d82523d6000602084013e610c4f565b606091505b508051600003610c7d57604051633250574960e11b81526001600160a01b0385166004820152602401610429565b805181602001fd5b6001600160e01b03198116630a85bd0160e11b14610cc157604051633250574960e11b81526001600160a01b0385166004820152602401610429565b505b5050505050565b6103ff828260405180602001604052806000815250610ff8565b6000828152600660205260409020610cfc8282611730565b506040518281527ff8e1a15aba9398e019f0b49df1a4fde98ee17ae345cb5f6b5e2c27f5033e8ce79060200161087d565b6060610d3882610942565b5060008281526006602052604081208054610d5290611689565b80601f0160208091040260200160405190810160405280929190818152602001828054610d7e90611689565b8015610dcb5780601f10610da057610100808354040283529160200191610dcb565b820191906000526020600020905b815481529060010190602001808311610dae57829003601f168201915b505050505090506000610de960408051602081019091526000815290565b90508051600003610dfb575092915050565b815115610e2d578082604051602001610e159291906118b3565b60405160208183030381529060405292505050919050565b610e3684611010565b949350505050565b60006001600160e01b031982166380ac58cd60e01b1480610e6f57506001600160e01b03198216635b5e139f60e01b145b8061033357506301ffc9a760e01b6001600160e01b0319831614610333565b8080610ea257506001600160a01b03821615155b15610f64576000610eb284610942565b90506001600160a01b03831615801590610ede5750826001600160a01b0316816001600160a01b031614155b8015610ef15750610eef8184610889565b155b15610f1a5760405163a9fbf51f60e01b81526001600160a01b0384166004820152602401610429565b8115610f625783856001600160a01b0316826001600160a01b03167f8c5be1e5ebec7d5bd14f71427d1e84f3dd0314c0f7b2291e5b200ac8c7c3b92560405160405180910390a45b505b5050600090815260046020526040902080546001600160a01b0319166001600160a01b0392909216919091179055565b610f9f838383611085565b6104ae576001600160a01b038316610fcd57604051637e27328960e01b815260048101829052602401610429565b60405163177e802f60e01b81526001600160a01b038316600482015260248101829052604401610429565b61100283836110e8565b6104ae336000858585610b9f565b606061101b82610942565b50600061103360408051602081019091526000815290565b90506000815111611053576040518060200160405280600081525061107e565b8061105d8461114d565b60405160200161106e9291906118b3565b6040516020818303038152906040525b9392505050565b60006001600160a01b03831615801590610e365750826001600160a01b0316846001600160a01b031614806110bf57506110bf8484610889565b80610e365750506000908152600460205260409020546001600160a01b03908116911614919050565b6001600160a01b03821661111257604051633250574960e11b815260006004820152602401610429565b600061112083836000610988565b90506001600160a01b038116156104ae576040516339e3563760e11b815260006004820152602401610429565b6060600061115a836111e0565b600101905060008167ffffffffffffffff81111561117a5761117a611404565b6040519080825280601f01601f1916602001820160405280156111a4576020820181803683370190505b5090508181016020015b600019016f181899199a1a9b1b9c1cb0b131b232b360811b600a86061a8153600a85049450846111ae57509392505050565b60008072184f03e93ff9f4daa797ed6e38ed64bf6a1f0160401b831061121f5772184f03e93ff9f4daa797ed6e38ed64bf6a1f0160401b830492506040015b6d04ee2d6d415b85acef8100000000831061124b576d04ee2d6d415b85acef8100000000830492506020015b662386f26fc10000831061126957662386f26fc10000830492506010015b6305f5e1008310611281576305f5e100830492506008015b612710831061129557612710830492506004015b606483106112a7576064830492506002015b600a83106103335760010192915050565b6001600160e01b03198116811461091a57600080fd5b6000602082840312156112e057600080fd5b813561107e816112b8565b60005b838110156113065781810151838201526020016112ee565b50506000910152565b600081518084526113278160208601602086016112eb565b601f01601f19169290920160200192915050565b60208152600061107e602083018461130f565b60006020828403121561136057600080fd5b5035919050565b80356001600160a01b038116811461137e57600080fd5b919050565b6000806040838503121561139657600080fd5b61139f83611367565b946020939093013593505050565b6000806000606084860312156113c257600080fd5b6113cb84611367565b92506113d960208501611367565b9150604084013590509250925092565b6000602082840312156113fb57600080fd5b61107e82611367565b634e487b7160e01b600052604160045260246000fd5b600067ffffffffffffffff8084111561143557611435611404565b604051601f8501601f19908116603f0116810190828211818310171561145d5761145d611404565b8160405280935085815286868601111561147657600080fd5b858560208301376000602087830101525050509392505050565b600082601f8301126114a157600080fd5b61107e8383356020850161141a565b6000602082840312156114c257600080fd5b813567ffffffffffffffff8111156114d957600080fd5b610e3684828501611490565b600080604083850312156114f857600080fd5b61150183611367565b91506020830135801515811461151657600080fd5b809150509250929050565b6000806000806080858703121561153757600080fd5b61154085611367565b935061154e60208601611367565b925060408501359150606085013567ffffffffffffffff81111561157157600080fd5b8501601f8101871361158257600080fd5b6115918782356020840161141a565b91505092959194509250565b6000806000606084860312156115b257600080fd5b6115bb84611367565b9250602084013567ffffffffffffffff808211156115d857600080fd5b6115e487838801611490565b935060408601359150808211156115fa57600080fd5b5061160786828701611490565b9150509250925092565b6000806040838503121561162457600080fd5b823567ffffffffffffffff81111561163b57600080fd5b61164785828601611490565b95602094909401359450505050565b6000806040838503121561166957600080fd5b61167283611367565b915061168060208401611367565b90509250929050565b600181811c9082168061169d57607f821691505b6020821081036116bd57634e487b7160e01b600052602260045260246000fd5b50919050565b6000600182016116e357634e487b7160e01b600052601160045260246000fd5b5060010190565b601f8211156104ae57600081815260208120601f850160051c810160208610156117115750805b601f850160051c820191505b81811015610cc15782815560010161171d565b815167ffffffffffffffff81111561174a5761174a611404565b61175e816117588454611689565b846116ea565b602080601f831160018114611793576000841561177b5750858301515b600019600386901b1c1916600185901b178555610cc1565b600085815260208120601f198616915b828110156117c2578886015182559484019460019091019084016117a3565b50858210156117e05787850151600019600388901b60f8161c191681555b5050505050600190811b01905550565b838152606060208201526000611809606083018561130f565b828103604084015261181b818561130f565b9695505050505050565b600082516118378184602087016112eb565b9190910192915050565b604081526000611854604083018561130f565b90508260208301529392505050565b6001600160a01b038581168252841660208201526040810183905260806060820181905260009061181b9083018461130f565b6000602082840312156118a857600080fd5b815161107e816112b8565b600083516118c58184602088016112eb565b8351908301906118d98183602088016112eb565b0194935050505056fea2646970667358221220a20e7f9138d96b4436bf9fc79fab8fff65cc2ea3830085938aeabf6cfe88dc0664736f6c63430008140033",
  "linkReferences": {},
  "deployedLinkReferences": {}
}